{
  "_format": "hh-sol-artifact-1",
  "contractName": "Crop",
  "sourceName": "contracts/Crop.sol",
  "abi": [
    {
      "inputs": [],
      "name": "checkContractBalance",
      "outputs": [
        {
          "internalType": "uint256",
          "name": "",
          "type": "uint256"
        }
      ],
      "stateMutability": "view",
      "type": "function"
    },
    {
      "inputs": [],
      "name": "depositFunds",
      "outputs": [],
      "stateMutability": "payable",
      "type": "function"
    },
    {
      "inputs": [],
      "name": "owner",
      "outputs": [
        {
          "internalType": "address",
          "name": "",
          "type": "address"
        }
      ],
      "stateMutability": "view",
      "type": "function"
    },
    {
      "inputs": [],
      "name": "totalFunds",
      "outputs": [
        {
          "internalType": "uint256",
          "name": "",
          "type": "uint256"
        }
      ],
      "stateMutability": "view",
      "type": "function"
    },
    {
      "inputs": [
        {
          "internalType": "address",
          "name": "recipient",
          "type": "address"
        },
        {
          "internalType": "uint256",
          "name": "claimAmount",
          "type": "uint256"
        },
        {
          "internalType": "uint256",
          "name": "verificationStatus",
          "type": "uint256"
        }
      ],
      "name": "transferClaims",
      "outputs": [],
      "stateMutability": "payable",
      "type": "function"
    },
    {
      "stateMutability": "payable",
      "type": "receive"
    }
  ],
  "bytecode": "0x608060405234801561001057600080fd5b50610553806100206000396000f3fe60806040526004361061004e5760003560e01c806350312c9e1461005a578063795654fd146100855780638da5cb5b146100a1578063968ed600146100cc578063e2c41dbc146100f757610055565b3661005557005b600080fd5b34801561006657600080fd5b5061006f610101565b60405161007c9190610254565b60405180910390f35b61009f600480360381019061009a91906102fe565b610109565b005b3480156100ad57600080fd5b506100b66101f6565b6040516100c39190610360565b60405180910390f35b3480156100d857600080fd5b506100e161021a565b6040516100ee9190610254565b60405180910390f35b6100ff610220565b005b600047905090565b60015482111561014e576040517f08c379a0000000000000000000000000000000000000000000000000000000008152600401610145906103d8565b60405180910390fd5b60018114610191576040517f08c379a000000000000000000000000000000000000000000000000000000000815260040161018890610444565b60405180910390fd5b81600160008282546101a39190610493565b925050819055508273ffffffffffffffffffffffffffffffffffffffff166108fc839081150290604051600060405180830381858888f193505050501580156101f0573d6000803e3d6000fd5b50505050565b60008054906101000a900473ffffffffffffffffffffffffffffffffffffffff1681565b60015481565b346001600082825461023291906104c7565b92505081905550565b6000819050919050565b61024e8161023b565b82525050565b60006020820190506102696000830184610245565b92915050565b600080fd5b600073ffffffffffffffffffffffffffffffffffffffff82169050919050565b600061029f82610274565b9050919050565b6102af81610294565b81146102ba57600080fd5b50565b6000813590506102cc816102a6565b92915050565b6102db8161023b565b81146102e657600080fd5b50565b6000813590506102f8816102d2565b92915050565b6000806000606084860312156103175761031661026f565b5b6000610325868287016102bd565b9350506020610336868287016102e9565b9250506040610347868287016102e9565b9150509250925092565b61035a81610294565b82525050565b60006020820190506103756000830184610351565b92915050565b600082825260208201905092915050565b7f496e73756666696369656e742066756e64730000000000000000000000000000600082015250565b60006103c260128361037b565b91506103cd8261038c565b602082019050919050565b600060208201905081810360008301526103f1816103b5565b9050919050565b7f436c61696d206973206e6f742076657269666965640000000000000000000000600082015250565b600061042e60158361037b565b9150610439826103f8565b602082019050919050565b6000602082019050818103600083015261045d81610421565b9050919050565b7f4e487b7100000000000000000000000000000000000000000000000000000000600052601160045260246000fd5b600061049e8261023b565b91506104a98361023b565b9250828210156104bc576104bb610464565b5b828203905092915050565b60006104d28261023b565b91506104dd8361023b565b9250827fffffffffffffffffffffffffffffffffffffffffffffffffffffffffffffffff0382111561051257610511610464565b5b82820190509291505056fea264697066735822122064174c98d43699d72d0e41799b1ce717caa7bbbe60916f6cff07cee2051d545c64736f6c63430008090033",
  "linkReferences": {},
  "deployedLinkReferences": {}
}